{
  "contractName": "Pinkslips",
  "abi": [
    {
      "inputs": [],
      "stateMutability": "nonpayable",
      "type": "constructor"
    },
    {
      "inputs": [],
      "name": "owner",
      "outputs": [
        {
          "internalType": "address",
          "name": "",
          "type": "address"
        }
      ],
      "stateMutability": "view",
      "type": "function",
      "constant": true
    },
    {
      "inputs": [
        {
          "internalType": "uint256",
          "name": "",
          "type": "uint256"
        }
      ],
      "name": "pinkslips",
      "outputs": [
        {
          "internalType": "address",
          "name": "owner",
          "type": "address"
        },
        {
          "internalType": "uint256",
          "name": "price",
          "type": "uint256"
        }
      ],
      "stateMutability": "view",
      "type": "function",
      "constant": true
    },
    {
      "inputs": [
        {
          "internalType": "uint256",
          "name": "_index",
          "type": "uint256"
        }
      ],
      "name": "buyPinkslip",
      "outputs": [],
      "stateMutability": "payable",
      "type": "function",
      "payable": true
    }
  ],
  "bytecode": "0x6080604052336000806101000a81548173ffffffffffffffffffffffffffffffffffffffff021916908373ffffffffffffffffffffffffffffffffffffffff16021790555034801561005057600080fd5b5060005b60058110156100f357600060018260058110610073576100726100f9565b5b6002020160000160006101000a81548173ffffffffffffffffffffffffffffffffffffffff021916908373ffffffffffffffffffffffffffffffffffffffff16021790555067016345785d8a0000600182600581106100d5576100d46100f9565b5b600202016001018190555080806100eb90610161565b915050610054565b506101aa565b7f4e487b7100000000000000000000000000000000000000000000000000000000600052603260045260246000fd5b7f4e487b7100000000000000000000000000000000000000000000000000000000600052601160045260246000fd5b6000819050919050565b600061016c82610157565b91507fffffffffffffffffffffffffffffffffffffffffffffffffffffffffffffffff82141561019f5761019e610128565b5b600182019050919050565b6103a0806101b96000396000f3fe6080604052600436106100345760003560e01c80636856dce7146100395780638da5cb5b14610055578063d2fbb9dd14610080575b600080fd5b610053600480360381019061004e919061027a565b6100be565b005b34801561006157600080fd5b5061006a6101d1565b60405161007791906102e8565b60405180910390f35b34801561008c57600080fd5b506100a760048036038101906100a2919061027a565b6101f5565b6040516100b5929190610312565b60405180910390f35b6005811080156100cf575060008110155b6100d857600080fd5b600073ffffffffffffffffffffffffffffffffffffffff16600182600581106101045761010361033b565b5b6002020160000160009054906101000a900473ffffffffffffffffffffffffffffffffffffffff1673ffffffffffffffffffffffffffffffffffffffff161461014c57600080fd5b600181600581106101605761015f61033b565b5b600202016001015434101561017457600080fd5b33600182600581106101895761018861033b565b5b6002020160000160006101000a81548173ffffffffffffffffffffffffffffffffffffffff021916908373ffffffffffffffffffffffffffffffffffffffff16021790555050565b60008054906101000a900473ffffffffffffffffffffffffffffffffffffffff1681565b6001816005811061020557600080fd5b600202016000915090508060000160009054906101000a900473ffffffffffffffffffffffffffffffffffffffff16908060010154905082565b600080fd5b6000819050919050565b61025781610244565b811461026257600080fd5b50565b6000813590506102748161024e565b92915050565b6000602082840312156102905761028f61023f565b5b600061029e84828501610265565b91505092915050565b600073ffffffffffffffffffffffffffffffffffffffff82169050919050565b60006102d2826102a7565b9050919050565b6102e2816102c7565b82525050565b60006020820190506102fd60008301846102d9565b92915050565b61030c81610244565b82525050565b600060408201905061032760008301856102d9565b6103346020830184610303565b9392505050565b7f4e487b7100000000000000000000000000000000000000000000000000000000600052603260045260246000fdfea2646970667358221220a8497ebc4d8e0809d6f22ee11b133e13ef85473e730aeea52ebc9bf6f2de2be964736f6c634300080b0033",
  "immutableReferences": {},
  "source": "pragma solidity >=0.4.22 <0.9.0;\r\n\r\nuint256 constant Total_Pinkslips = 5 ;\r\n\r\ncontract Pinkslips{\r\n\r\n address public owner=msg.sender; \r\n  \r\n  struct Pinkslip{\r\n     address owner;\r\n     uint256 price;\r\n\r\n }\r\nPinkslip[Total_Pinkslips] public pinkslips;\r\n \r\n constructor(){\r\n     for (uint256 i = 0;i < Total_Pinkslips;i++){\r\n         pinkslips[i].owner=address(0x0);\r\n         pinkslips[i].price=1e17;\r\n     }\r\n }\r\n function buyPinkslip(uint256 _index) external payable {\r\n     require(_index < Total_Pinkslips && _index >= 0);\r\n     require(pinkslips[_index].owner == address(0x0));\r\n     require(msg.value >= pinkslips[_index].price );\r\n     pinkslips[_index].owner = msg.sender;\r\n }\r\n}",
  "sourcePath": "C:\\Users\\Darko Grmashkoski\\Desktop\\DynamicDataProject\\contracts\\Pinkslips.sol",
  "compiler": {
    "name": "solc",
    "version": "0.8.11+commit.d7f03943.Emscripten.clang"
  },
  "schemaVersion": "3.4.4",
  "updatedAt": "2022-05-16T02:17:28.591Z",
  "networkType": "ethereum",
  "devdoc": {
    "kind": "dev",
    "methods": {},
    "version": 1
  },
  "userdoc": {
    "kind": "user",
    "methods": {},
    "version": 1
  }
}